{
  "_format": "hh-sol-artifact-1",
  "contractName": "Loyalty",
  "sourceName": "contracts/Loyalty.sol",
  "abi": [
    {
      "inputs": [
        {
          "internalType": "string",
          "name": "_funkyName",
          "type": "string"
        }
      ],
      "name": "addCustomer",
      "outputs": [],
      "stateMutability": "nonpayable",
      "type": "function"
    },
    {
      "inputs": [
        {
          "internalType": "string",
          "name": "_hash",
          "type": "string"
        },
        {
          "internalType": "uint256",
          "name": "_designation",
          "type": "uint256"
        }
      ],
      "name": "addNft",
      "outputs": [],
      "stateMutability": "nonpayable",
      "type": "function"
    },
    {
      "inputs": [
        {
          "internalType": "uint256",
          "name": "",
          "type": "uint256"
        }
      ],
      "name": "allCustomers",
      "outputs": [
        {
          "internalType": "address",
          "name": "",
          "type": "address"
        }
      ],
      "stateMutability": "view",
      "type": "function"
    },
    {
      "inputs": [
        {
          "internalType": "uint256",
          "name": "",
          "type": "uint256"
        }
      ],
      "name": "customers",
      "outputs": [
        {
          "internalType": "address",
          "name": "customer_address",
          "type": "address"
        },
        {
          "internalType": "string",
          "name": "funkyName",
          "type": "string"
        },
        {
          "internalType": "string",
          "name": "tier",
          "type": "string"
        },
        {
          "internalType": "uint256",
          "name": "overAllPoints",
          "type": "uint256"
        },
        {
          "internalType": "uint256",
          "name": "coffeeBeans",
          "type": "uint256"
        }
      ],
      "stateMutability": "view",
      "type": "function"
    },
    {
      "inputs": [
        {
          "internalType": "address",
          "name": "_customer",
          "type": "address"
        },
        {
          "internalType": "string",
          "name": "items",
          "type": "string"
        },
        {
          "internalType": "uint256",
          "name": "_bill",
          "type": "uint256"
        }
      ],
      "name": "earnPoints",
      "outputs": [
        {
          "internalType": "uint256",
          "name": "",
          "type": "uint256"
        }
      ],
      "stateMutability": "nonpayable",
      "type": "function"
    },
    {
      "inputs": [],
      "name": "getAllCustomers",
      "outputs": [
        {
          "internalType": "address[]",
          "name": "",
          "type": "address[]"
        }
      ],
      "stateMutability": "view",
      "type": "function"
    },
    {
      "inputs": [
        {
          "internalType": "address",
          "name": "_address",
          "type": "address"
        }
      ],
      "name": "getCustomer",
      "outputs": [
        {
          "components": [
            {
              "internalType": "address",
              "name": "customer_address",
              "type": "address"
            },
            {
              "internalType": "string",
              "name": "funkyName",
              "type": "string"
            },
            {
              "internalType": "string",
              "name": "tier",
              "type": "string"
            },
            {
              "internalType": "uint256",
              "name": "overAllPoints",
              "type": "uint256"
            },
            {
              "internalType": "uint256",
              "name": "coffeeBeans",
              "type": "uint256"
            },
            {
              "internalType": "string[]",
              "name": "orders",
              "type": "string[]"
            },
            {
              "internalType": "string[]",
              "name": "badges",
              "type": "string[]"
            },
            {
              "internalType": "string[]",
              "name": "NFTs",
              "type": "string[]"
            }
          ],
          "internalType": "struct Loyalty.Customer",
          "name": "",
          "type": "tuple"
        }
      ],
      "stateMutability": "view",
      "type": "function"
    },
    {
      "inputs": [
        {
          "internalType": "address",
          "name": "_address",
          "type": "address"
        }
      ],
      "name": "giveTier",
      "outputs": [],
      "stateMutability": "nonpayable",
      "type": "function"
    },
    {
      "inputs": [
        {
          "internalType": "address",
          "name": "_address",
          "type": "address"
        }
      ],
      "name": "gubblieOrder",
      "outputs": [],
      "stateMutability": "nonpayable",
      "type": "function"
    },
    {
      "inputs": [],
      "name": "isOwner",
      "outputs": [
        {
          "internalType": "bool",
          "name": "",
          "type": "bool"
        }
      ],
      "stateMutability": "view",
      "type": "function"
    },
    {
      "inputs": [],
      "name": "owner",
      "outputs": [
        {
          "internalType": "address",
          "name": "",
          "type": "address"
        }
      ],
      "stateMutability": "view",
      "type": "function"
    }
  ],
  "bytecode": "0x6080604052600060015561138860045573607d1cb32b9030b1968a377bec2c17ebaaf412e6600760006101000a81548173ffffffffffffffffffffffffffffffffffffffff021916908373ffffffffffffffffffffffffffffffffffffffff16021790555034801561007057600080fd5b506123c1806100806000396000f3fe608060405234801561001057600080fd5b50600436106100a95760003560e01c8063b6ee54d611610071578063b6ee54d614610140578063c0abda2a14610170578063cb949e51146101a4578063d15b6a8c146101d4578063da6d35e4146101f0578063eb6fbd201461020c576100a9565b806303dd3d81146100ae57806335287a45146100ca5780637da67ba8146100e65780638da5cb5b146101045780638f32d59b14610122575b600080fd5b6100c860048036038101906100c39190611b4b565b61023c565b005b6100e460048036038101906100df9190611aaf565b610720565b005b6100ee610c3e565b6040516100fb9190611f21565b60405180910390f35b61010c610ccc565b6040516101199190611ea5565b60405180910390f35b61012a610cf2565b6040516101379190611f43565b60405180910390f35b61015a60048036038101906101559190611adc565b610d5b565b6040516101679190611f80565b60405180910390f35b61018a60048036038101906101859190611bf0565b610f0d565b60405161019b959493929190611ec0565b60405180910390f35b6101be60048036038101906101b99190611aaf565b611083565b6040516101cb9190611f5e565b60405180910390f35b6101ee60048036038101906101e99190611b94565b6114f6565b005b61020a60048036038101906102059190611aaf565b611586565b005b61022660048036038101906102219190611bf0565b611787565b6040516102339190611ea5565b60405180910390f35b6006339080600181540180825580915050600190039060005260206000200160009091909190916101000a81548173ffffffffffffffffffffffffffffffffffffffff021916908373ffffffffffffffffffffffffffffffffffffffff16021790555033600860003373ffffffffffffffffffffffffffffffffffffffff1673ffffffffffffffffffffffffffffffffffffffff16815260200190815260200160002060000160006101000a81548173ffffffffffffffffffffffffffffffffffffffff021916908373ffffffffffffffffffffffffffffffffffffffff16021790555080600860003373ffffffffffffffffffffffffffffffffffffffff1673ffffffffffffffffffffffffffffffffffffffff16815260200190815260200160002060010190805190602001906103769291906117c6565b506000600860003373ffffffffffffffffffffffffffffffffffffffff1673ffffffffffffffffffffffffffffffffffffffff168152602001908152602001600020600301819055506040518060400160405280600681526020017f62726f6e7a650000000000000000000000000000000000000000000000000000815250600860003373ffffffffffffffffffffffffffffffffffffffff1673ffffffffffffffffffffffffffffffffffffffff168152602001908152602001600020600201908051906020019061044a9291906117c6565b506000600860003373ffffffffffffffffffffffffffffffffffffffff1673ffffffffffffffffffffffffffffffffffffffff1681526020019081526020016000206004018190555060056040518061010001604052803373ffffffffffffffffffffffffffffffffffffffff1681526020018381526020016040518060400160405280600681526020017f62726f6e7a65000000000000000000000000000000000000000000000000000081525081526020016000815260200160008152602001600067ffffffffffffffff81111561052757610526612309565b5b60405190808252806020026020018201604052801561055a57816020015b60608152602001906001900390816105455790505b508152602001600067ffffffffffffffff81111561057b5761057a612309565b5b6040519080825280602002602001820160405280156105ae57816020015b60608152602001906001900390816105995790505b508152602001600067ffffffffffffffff8111156105cf576105ce612309565b5b60405190808252806020026020018201604052801561060257816020015b60608152602001906001900390816105ed5790505b50815250908060018154018082558091505060019003906000526020600020906008020160009091909190915060008201518160000160006101000a81548173ffffffffffffffffffffffffffffffffffffffff021916908373ffffffffffffffffffffffffffffffffffffffff16021790555060208201518160010190805190602001906106929291906117c6565b5060408201518160020190805190602001906106af9291906117c6565b50606082015181600301556080820151816004015560a08201518160050190805190602001906106e092919061184c565b5060c08201518160060190805190602001906106fd92919061184c565b5060e082015181600701908051906020019061071a92919061184c565b50505050565b6000600860008373ffffffffffffffffffffffffffffffffffffffff1673ffffffffffffffffffffffffffffffffffffffff1681526020019081526020016000206003015490506103e8811061089e576040518060400160405280600881526020017f506c6174696e756d000000000000000000000000000000000000000000000000815250600860008473ffffffffffffffffffffffffffffffffffffffff1673ffffffffffffffffffffffffffffffffffffffff16815260200190815260200160002060020190805190602001906107fb9291906117c6565b50600860008373ffffffffffffffffffffffffffffffffffffffff1673ffffffffffffffffffffffffffffffffffffffff16815260200190815260200160002060060160038081548110610852576108516122da565b5b906000526020600020019080600181540180825580915050600190039060005260206000200160009091909190915090805461088d90612170565b6108989291906118ac565b50610c3a565b61025881106109d6576040518060400160405280600681526020017f476f6c64656e0000000000000000000000000000000000000000000000000000815250600860008473ffffffffffffffffffffffffffffffffffffffff1673ffffffffffffffffffffffffffffffffffffffff16815260200190815260200160002060020190805190602001906109329291906117c6565b50600860008373ffffffffffffffffffffffffffffffffffffffff1673ffffffffffffffffffffffffffffffffffffffff168152602001908152602001600020600601600360028154811061098a576109896122da565b5b90600052602060002001908060018154018082558091505060019003906000526020600020016000909190919091509080546109c590612170565b6109d09291906118ac565b50610c39565b60fa8110610b0d576040518060400160405280600681526020017f53696c7665720000000000000000000000000000000000000000000000000000815250600860008473ffffffffffffffffffffffffffffffffffffffff1673ffffffffffffffffffffffffffffffffffffffff1681526020019081526020016000206002019080519060200190610a699291906117c6565b50600860008373ffffffffffffffffffffffffffffffffffffffff1673ffffffffffffffffffffffffffffffffffffffff1681526020019081526020016000206006016003600181548110610ac157610ac06122da565b5b9060005260206000200190806001815401808255809150506001900390600052602060002001600090919091909150908054610afc90612170565b610b079291906118ac565b50610c38565b6040518060400160405280600681526020017f62726f6e7a650000000000000000000000000000000000000000000000000000815250600860008473ffffffffffffffffffffffffffffffffffffffff1673ffffffffffffffffffffffffffffffffffffffff1681526020019081526020016000206002019080519060200190610b989291906117c6565b50600860008373ffffffffffffffffffffffffffffffffffffffff1673ffffffffffffffffffffffffffffffffffffffff1681526020019081526020016000206006016003600081548110610bf057610bef6122da565b5b9060005260206000200190806001815401808255809150506001900390600052602060002001600090919091909150908054610c2b90612170565b610c369291906118ac565b505b5b5b5050565b60606006805480602002602001604051908101604052809291908181526020018280548015610cc257602002820191906000526020600020905b8160009054906101000a900473ffffffffffffffffffffffffffffffffffffffff1673ffffffffffffffffffffffffffffffffffffffff1681526020019060010190808311610c78575b5050505050905090565b600760009054906101000a900473ffffffffffffffffffffffffffffffffffffffff1681565b6000600760009054906101000a900473ffffffffffffffffffffffffffffffffffffffff1673ffffffffffffffffffffffffffffffffffffffff163373ffffffffffffffffffffffffffffffffffffffff161415610d535760019050610d58565b600090505b90565b6000600760009054906101000a900473ffffffffffffffffffffffffffffffffffffffff1673ffffffffffffffffffffffffffffffffffffffff163373ffffffffffffffffffffffffffffffffffffffff161415610f05576000601483610dc2919061221c565b905080600860008773ffffffffffffffffffffffffffffffffffffffff1673ffffffffffffffffffffffffffffffffffffffff1681526020019081526020016000206003016000828254610e169190612090565b92505081905550600860008673ffffffffffffffffffffffffffffffffffffffff1673ffffffffffffffffffffffffffffffffffffffff16815260200190815260200160002060050184908060018154018082558091505060019003906000526020600020016000909190919091509080519060200190610e989291906117c6565b5060016000815480929190610eac906121d3565b9190505550610eba85611586565b600860008673ffffffffffffffffffffffffffffffffffffffff1673ffffffffffffffffffffffffffffffffffffffff16815260200190815260200160002060030154915050610f06565b5b9392505050565b60058181548110610f1d57600080fd5b90600052602060002090600802016000915090508060000160009054906101000a900473ffffffffffffffffffffffffffffffffffffffff1690806001018054610f6690612170565b80601f0160208091040260200160405190810160405280929190818152602001828054610f9290612170565b8015610fdf5780601f10610fb457610100808354040283529160200191610fdf565b820191906000526020600020905b815481529060010190602001808311610fc257829003601f168201915b505050505090806002018054610ff490612170565b80601f016020809104026020016040519081016040528092919081815260200182805461102090612170565b801561106d5780601f106110425761010080835404028352916020019161106d565b820191906000526020600020905b81548152906001019060200180831161105057829003601f168201915b5050505050908060030154908060040154905085565b61108b611939565b600860008373ffffffffffffffffffffffffffffffffffffffff1673ffffffffffffffffffffffffffffffffffffffff168152602001908152602001600020604051806101000160405290816000820160009054906101000a900473ffffffffffffffffffffffffffffffffffffffff1673ffffffffffffffffffffffffffffffffffffffff1673ffffffffffffffffffffffffffffffffffffffff16815260200160018201805461113c90612170565b80601f016020809104026020016040519081016040528092919081815260200182805461116890612170565b80156111b55780601f1061118a576101008083540402835291602001916111b5565b820191906000526020600020905b81548152906001019060200180831161119857829003601f168201915b505050505081526020016002820180546111ce90612170565b80601f01602080910402602001604051908101604052809291908181526020018280546111fa90612170565b80156112475780601f1061121c57610100808354040283529160200191611247565b820191906000526020600020905b81548152906001019060200180831161122a57829003601f168201915b50505050508152602001600382015481526020016004820154815260200160058201805480602002602001604051908101604052809291908181526020016000905b828210156113355783829060005260206000200180546112a890612170565b80601f01602080910402602001604051908101604052809291908181526020018280546112d490612170565b80156113215780601f106112f657610100808354040283529160200191611321565b820191906000526020600020905b81548152906001019060200180831161130457829003601f168201915b505050505081526020019060010190611289565b50505050815260200160068201805480602002602001604051908101604052809291908181526020016000905b8282101561140e57838290600052602060002001805461138190612170565b80601f01602080910402602001604051908101604052809291908181526020018280546113ad90612170565b80156113fa5780601f106113cf576101008083540402835291602001916113fa565b820191906000526020600020905b8154815290600101906020018083116113dd57829003601f168201915b505050505081526020019060010190611362565b50505050815260200160078201805480602002602001604051908101604052809291908181526020016000905b828210156114e757838290600052602060002001805461145a90612170565b80601f016020809104026020016040519081016040528092919081815260200182805461148690612170565b80156114d35780601f106114a8576101008083540402835291602001916114d3565b820191906000526020600020905b8154815290600101906020018083116114b657829003601f168201915b50505050508152602001906001019061143b565b50505050815250509050919050565b600081141561153c5760028290806001815401808255809150506001900390600052602060002001600090919091909150908051906020019061153a9291906117c6565b505b6001811415611582576003829080600181540180825580915050600190039060005260206000200160009091909190915090805190602001906115809291906117c6565b505b5050565b6064600154141561163057600860008273ffffffffffffffffffffffffffffffffffffffff1673ffffffffffffffffffffffffffffffffffffffff16815260200190815260200160002060070160026000815481106115e8576115e76122da565b5b906000526020600020019080600181540180825580915050600190039060005260206000200160009091909190915090805461162390612170565b61162e9291906118ac565b505b60fa60015414156116da57600860008273ffffffffffffffffffffffffffffffffffffffff1673ffffffffffffffffffffffffffffffffffffffff1681526020019081526020016000206007016002600181548110611692576116916122da565b5b90600052602060002001908060018154018082558091505060019003906000526020600020016000909190919091509080546116cd90612170565b6116d89291906118ac565b505b6101f4600154141561178457600860008273ffffffffffffffffffffffffffffffffffffffff1673ffffffffffffffffffffffffffffffffffffffff1681526020019081526020016000206007016002808154811061173c5761173b6122da565b5b906000526020600020019080600181540180825580915050600190039060005260206000200160009091909190915090805461177790612170565b6117829291906118ac565b505b50565b6006818154811061179757600080fd5b906000526020600020016000915054906101000a900473ffffffffffffffffffffffffffffffffffffffff1681565b8280546117d290612170565b90600052602060002090601f0160209004810192826117f4576000855561183b565b82601f1061180d57805160ff191683800117855561183b565b8280016001018555821561183b579182015b8281111561183a57825182559160200191906001019061181f565b5b5090506118489190611994565b5090565b82805482825590600052602060002090810192821561189b579160200282015b8281111561189a57825182908051906020019061188a9291906117c6565b509160200191906001019061186c565b5b5090506118a891906119b1565b5090565b8280546118b890612170565b90600052602060002090601f0160209004810192826118da5760008555611928565b82601f106118eb5780548555611928565b8280016001018555821561192857600052602060002091601f016020900482015b8281111561192757825482559160010191906001019061190c565b5b5090506119359190611994565b5090565b604051806101000160405280600073ffffffffffffffffffffffffffffffffffffffff168152602001606081526020016060815260200160008152602001600081526020016060815260200160608152602001606081525090565b5b808211156119ad576000816000905550600101611995565b5090565b5b808211156119d157600081816119c891906119d5565b506001016119b2565b5090565b5080546119e190612170565b6000825580601f106119f35750611a12565b601f016020900490600052602060002090810190611a119190611994565b5b50565b6000611a28611a2384611fc0565b611f9b565b905082815260208101848484011115611a4457611a4361233d565b5b611a4f84828561212e565b509392505050565b600081359050611a668161235d565b92915050565b600082601f830112611a8157611a80612338565b5b8135611a91848260208601611a15565b91505092915050565b600081359050611aa981612374565b92915050565b600060208284031215611ac557611ac4612347565b5b6000611ad384828501611a57565b91505092915050565b600080600060608486031215611af557611af4612347565b5b6000611b0386828701611a57565b935050602084013567ffffffffffffffff811115611b2457611b23612342565b5b611b3086828701611a6c565b9250506040611b4186828701611a9a565b9150509250925092565b600060208284031215611b6157611b60612347565b5b600082013567ffffffffffffffff811115611b7f57611b7e612342565b5b611b8b84828501611a6c565b91505092915050565b60008060408385031215611bab57611baa612347565b5b600083013567ffffffffffffffff811115611bc957611bc8612342565b5b611bd585828601611a6c565b9250506020611be685828601611a9a565b9150509250929050565b600060208284031215611c0657611c05612347565b5b6000611c1484828501611a9a565b91505092915050565b6000611c298383611c49565b60208301905092915050565b6000611c418383611d49565b905092915050565b611c52816120e6565b82525050565b611c61816120e6565b82525050565b6000611c7282612011565b611c7c818561204c565b9350611c8783611ff1565b8060005b83811015611cb8578151611c9f8882611c1d565b9750611caa83612032565b925050600181019050611c8b565b5085935050505092915050565b6000611cd08261201c565b611cda818561205d565b935083602082028501611cec85612001565b8060005b85811015611d285784840389528151611d098582611c35565b9450611d148361203f565b925060208a01995050600181019050611cf0565b50829750879550505050505092915050565b611d43816120f8565b82525050565b6000611d5482612027565b611d5e818561206e565b9350611d6e81856020860161213d565b611d778161234c565b840191505092915050565b6000611d8d82612027565b611d97818561207f565b9350611da781856020860161213d565b611db08161234c565b840191505092915050565b600061010083016000830151611dd46000860182611c49565b5060208301518482036020860152611dec8282611d49565b91505060408301518482036040860152611e068282611d49565b9150506060830151611e1b6060860182611e87565b506080830151611e2e6080860182611e87565b5060a083015184820360a0860152611e468282611cc5565b91505060c083015184820360c0860152611e608282611cc5565b91505060e083015184820360e0860152611e7a8282611cc5565b9150508091505092915050565b611e9081612124565b82525050565b611e9f81612124565b82525050565b6000602082019050611eba6000830184611c58565b92915050565b600060a082019050611ed56000830188611c58565b8181036020830152611ee78187611d82565b90508181036040830152611efb8186611d82565b9050611f0a6060830185611e96565b611f176080830184611e96565b9695505050505050565b60006020820190508181036000830152611f3b8184611c67565b905092915050565b6000602082019050611f586000830184611d3a565b92915050565b60006020820190508181036000830152611f788184611dbb565b905092915050565b6000602082019050611f956000830184611e96565b92915050565b6000611fa5611fb6565b9050611fb182826121a2565b919050565b6000604051905090565b600067ffffffffffffffff821115611fdb57611fda612309565b5b611fe48261234c565b9050602081019050919050565b6000819050602082019050919050565b6000819050602082019050919050565b600081519050919050565b600081519050919050565b600081519050919050565b6000602082019050919050565b6000602082019050919050565b600082825260208201905092915050565b600082825260208201905092915050565b600082825260208201905092915050565b600082825260208201905092915050565b600061209b82612124565b91506120a683612124565b9250827fffffffffffffffffffffffffffffffffffffffffffffffffffffffffffffffff038211156120db576120da61224d565b5b828201905092915050565b60006120f182612104565b9050919050565b60008115159050919050565b600073ffffffffffffffffffffffffffffffffffffffff82169050919050565b6000819050919050565b82818337600083830152505050565b60005b8381101561215b578082015181840152602081019050612140565b8381111561216a576000848401525b50505050565b6000600282049050600182168061218857607f821691505b6020821081141561219c5761219b6122ab565b5b50919050565b6121ab8261234c565b810181811067ffffffffffffffff821117156121ca576121c9612309565b5b80604052505050565b60006121de82612124565b91507fffffffffffffffffffffffffffffffffffffffffffffffffffffffffffffffff8214156122115761221061224d565b5b600182019050919050565b600061222782612124565b915061223283612124565b9250826122425761224161227c565b5b828206905092915050565b7f4e487b7100000000000000000000000000000000000000000000000000000000600052601160045260246000fd5b7f4e487b7100000000000000000000000000000000000000000000000000000000600052601260045260246000fd5b7f4e487b7100000000000000000000000000000000000000000000000000000000600052602260045260246000fd5b7f4e487b7100000000000000000000000000000000000000000000000000000000600052603260045260246000fd5b7f4e487b7100000000000000000000000000000000000000000000000000000000600052604160045260246000fd5b600080fd5b600080fd5b600080fd5b600080fd5b6000601f19601f8301169050919050565b612366816120e6565b811461237157600080fd5b50565b61237d81612124565b811461238857600080fd5b5056fea264697066735822122094788f2134e0de5494a68d2ea7199c3133dc55e09ac8afa33d08c72a97633d7b64736f6c63430008070033",
  "linkReferences": {},
  "deployedLinkReferences": {}
}