{
  "_format": "hh-sol-artifact-1",
  "contractName": "Loyalty",
  "sourceName": "contracts/Loyalty.sol",
  "abi": [
    {
      "inputs": [
        {
          "internalType": "string",
          "name": "_funkyName",
          "type": "string"
        }
      ],
      "name": "addCustomer",
      "outputs": [],
      "stateMutability": "nonpayable",
      "type": "function"
    },
    {
      "inputs": [
        {
          "internalType": "string",
          "name": "_hash",
          "type": "string"
        },
        {
          "internalType": "uint256",
          "name": "_designation",
          "type": "uint256"
        }
      ],
      "name": "addNft",
      "outputs": [],
      "stateMutability": "nonpayable",
      "type": "function"
    },
    {
      "inputs": [
        {
          "internalType": "uint256",
          "name": "",
          "type": "uint256"
        }
      ],
      "name": "allCustomers",
      "outputs": [
        {
          "internalType": "address",
          "name": "",
          "type": "address"
        }
      ],
      "stateMutability": "view",
      "type": "function"
    },
    {
      "inputs": [
        {
          "internalType": "uint256",
          "name": "",
          "type": "uint256"
        }
      ],
      "name": "customers",
      "outputs": [
        {
          "internalType": "address",
          "name": "customer_address",
          "type": "address"
        },
        {
          "internalType": "string",
          "name": "funkyName",
          "type": "string"
        },
        {
          "internalType": "string",
          "name": "tier",
          "type": "string"
        },
        {
          "internalType": "uint256",
          "name": "overAllPoints",
          "type": "uint256"
        },
        {
          "internalType": "uint256",
          "name": "coffeeBeans",
          "type": "uint256"
        }
      ],
      "stateMutability": "view",
      "type": "function"
    },
    {
      "inputs": [
        {
          "internalType": "address",
          "name": "_customer",
          "type": "address"
        },
        {
          "internalType": "string",
          "name": "items",
          "type": "string"
        },
        {
          "internalType": "uint256",
          "name": "_bill",
          "type": "uint256"
        }
      ],
      "name": "earnPoints",
      "outputs": [
        {
          "internalType": "uint256",
          "name": "",
          "type": "uint256"
        }
      ],
      "stateMutability": "nonpayable",
      "type": "function"
    },
    {
      "inputs": [
        {
          "internalType": "address",
          "name": "_address",
          "type": "address"
        }
      ],
      "name": "getCustomer",
      "outputs": [
        {
          "components": [
            {
              "internalType": "address",
              "name": "customer_address",
              "type": "address"
            },
            {
              "internalType": "string",
              "name": "funkyName",
              "type": "string"
            },
            {
              "internalType": "string",
              "name": "tier",
              "type": "string"
            },
            {
              "internalType": "uint256",
              "name": "overAllPoints",
              "type": "uint256"
            },
            {
              "internalType": "uint256",
              "name": "coffeeBeans",
              "type": "uint256"
            },
            {
              "internalType": "string[]",
              "name": "orders",
              "type": "string[]"
            },
            {
              "internalType": "string[]",
              "name": "badges",
              "type": "string[]"
            },
            {
              "internalType": "string[]",
              "name": "NFTs",
              "type": "string[]"
            }
          ],
          "internalType": "struct Loyalty.Customer",
          "name": "",
          "type": "tuple"
        }
      ],
      "stateMutability": "view",
      "type": "function"
    },
    {
      "inputs": [],
      "name": "getCustomerList",
      "outputs": [
        {
          "internalType": "address[]",
          "name": "",
          "type": "address[]"
        }
      ],
      "stateMutability": "view",
      "type": "function"
    },
    {
      "inputs": [
        {
          "internalType": "address",
          "name": "_address",
          "type": "address"
        }
      ],
      "name": "giveTier",
      "outputs": [],
      "stateMutability": "nonpayable",
      "type": "function"
    },
    {
      "inputs": [
        {
          "internalType": "address",
          "name": "_address",
          "type": "address"
        }
      ],
      "name": "gubblieOrder",
      "outputs": [],
      "stateMutability": "nonpayable",
      "type": "function"
    },
    {
      "inputs": [
        {
          "internalType": "uint256",
          "name": "",
          "type": "uint256"
        }
      ],
      "name": "owners",
      "outputs": [
        {
          "internalType": "address",
          "name": "",
          "type": "address"
        }
      ],
      "stateMutability": "view",
      "type": "function"
    }
  ],
  "bytecode": "0x60806040526000600155611388600455604051806020016040528073ab8483f64d9c6d1ecf9b849ae677dd3315835cb273ffffffffffffffffffffffffffffffffffffffff1673ffffffffffffffffffffffffffffffffffffffff1681525060079060016200007092919062000085565b503480156200007e57600080fd5b5062000133565b82805482825590600052602060002090810192821562000101579160200282015b82811115620001005782518260006101000a81548173ffffffffffffffffffffffffffffffffffffffff021916908373ffffffffffffffffffffffffffffffffffffffff16021790555091602001919060010190620000a6565b5b50905062000110919062000114565b5090565b5b808211156200012f57600081600090555060010162000115565b5090565b61241580620001436000396000f3fe608060405234801561001057600080fd5b506004361061009e5760003560e01c8063c0abda2a11610066578063c0abda2a14610159578063cb949e511461018d578063d15b6a8c146101bd578063da6d35e4146101d9578063eb6fbd20146101f55761009e565b8063025e7c27146100a357806303dd3d81146100d357806335287a45146100ef578063819f56841461010b578063b6ee54d614610129575b600080fd5b6100bd60048036038101906100b89190611c0e565b610225565b6040516100ca9190611ed7565b60405180910390f35b6100ed60048036038101906100e89190611b69565b610264565b005b61010960048036038101906101049190611acd565b610748565b005b610113610c66565b6040516101209190611f53565b60405180910390f35b610143600480360381019061013e9190611afa565b610cf4565b6040516101509190611fb7565b60405180910390f35b610173600480360381019061016e9190611c0e565b610f2b565b604051610184959493929190611ef2565b60405180910390f35b6101a760048036038101906101a29190611acd565b6110a1565b6040516101b49190611f95565b60405180910390f35b6101d760048036038101906101d29190611bb2565b611514565b005b6101f360048036038101906101ee9190611acd565b6115a4565b005b61020f600480360381019061020a9190611c0e565b6117a5565b60405161021c9190611ed7565b60405180910390f35b6007818154811061023557600080fd5b906000526020600020016000915054906101000a900473ffffffffffffffffffffffffffffffffffffffff1681565b6006339080600181540180825580915050600190039060005260206000200160009091909190916101000a81548173ffffffffffffffffffffffffffffffffffffffff021916908373ffffffffffffffffffffffffffffffffffffffff16021790555033600860003373ffffffffffffffffffffffffffffffffffffffff1673ffffffffffffffffffffffffffffffffffffffff16815260200190815260200160002060000160006101000a81548173ffffffffffffffffffffffffffffffffffffffff021916908373ffffffffffffffffffffffffffffffffffffffff16021790555080600860003373ffffffffffffffffffffffffffffffffffffffff1673ffffffffffffffffffffffffffffffffffffffff168152602001908152602001600020600101908051906020019061039e9291906117e4565b506000600860003373ffffffffffffffffffffffffffffffffffffffff1673ffffffffffffffffffffffffffffffffffffffff168152602001908152602001600020600301819055506040518060400160405280600681526020017f62726f6e7a650000000000000000000000000000000000000000000000000000815250600860003373ffffffffffffffffffffffffffffffffffffffff1673ffffffffffffffffffffffffffffffffffffffff16815260200190815260200160002060020190805190602001906104729291906117e4565b506000600860003373ffffffffffffffffffffffffffffffffffffffff1673ffffffffffffffffffffffffffffffffffffffff1681526020019081526020016000206004018190555060056040518061010001604052803373ffffffffffffffffffffffffffffffffffffffff1681526020018381526020016040518060400160405280600681526020017f62726f6e7a65000000000000000000000000000000000000000000000000000081525081526020016000815260200160008152602001600067ffffffffffffffff81111561054f5761054e612334565b5b60405190808252806020026020018201604052801561058257816020015b606081526020019060019003908161056d5790505b508152602001600067ffffffffffffffff8111156105a3576105a2612334565b5b6040519080825280602002602001820160405280156105d657816020015b60608152602001906001900390816105c15790505b508152602001600067ffffffffffffffff8111156105f7576105f6612334565b5b60405190808252806020026020018201604052801561062a57816020015b60608152602001906001900390816106155790505b50815250908060018154018082558091505060019003906000526020600020906008020160009091909190915060008201518160000160006101000a81548173ffffffffffffffffffffffffffffffffffffffff021916908373ffffffffffffffffffffffffffffffffffffffff16021790555060208201518160010190805190602001906106ba9291906117e4565b5060408201518160020190805190602001906106d79291906117e4565b50606082015181600301556080820151816004015560a082015181600501908051906020019061070892919061186a565b5060c082015181600601908051906020019061072592919061186a565b5060e082015181600701908051906020019061074292919061186a565b50505050565b6000600860008373ffffffffffffffffffffffffffffffffffffffff1673ffffffffffffffffffffffffffffffffffffffff1681526020019081526020016000206003015490506103e881106108c6576040518060400160405280600881526020017f506c6174696e756d000000000000000000000000000000000000000000000000815250600860008473ffffffffffffffffffffffffffffffffffffffff1673ffffffffffffffffffffffffffffffffffffffff16815260200190815260200160002060020190805190602001906108239291906117e4565b50600860008373ffffffffffffffffffffffffffffffffffffffff1673ffffffffffffffffffffffffffffffffffffffff1681526020019081526020016000206006016003808154811061087a57610879612305565b5b90600052602060002001908060018154018082558091505060019003906000526020600020016000909190919091509080546108b59061219b565b6108c09291906118ca565b50610c62565b61025881106109fe576040518060400160405280600681526020017f476f6c64656e0000000000000000000000000000000000000000000000000000815250600860008473ffffffffffffffffffffffffffffffffffffffff1673ffffffffffffffffffffffffffffffffffffffff168152602001908152602001600020600201908051906020019061095a9291906117e4565b50600860008373ffffffffffffffffffffffffffffffffffffffff1673ffffffffffffffffffffffffffffffffffffffff16815260200190815260200160002060060160036002815481106109b2576109b1612305565b5b90600052602060002001908060018154018082558091505060019003906000526020600020016000909190919091509080546109ed9061219b565b6109f89291906118ca565b50610c61565b60fa8110610b35576040518060400160405280600681526020017f53696c7665720000000000000000000000000000000000000000000000000000815250600860008473ffffffffffffffffffffffffffffffffffffffff1673ffffffffffffffffffffffffffffffffffffffff1681526020019081526020016000206002019080519060200190610a919291906117e4565b50600860008373ffffffffffffffffffffffffffffffffffffffff1673ffffffffffffffffffffffffffffffffffffffff1681526020019081526020016000206006016003600181548110610ae957610ae8612305565b5b9060005260206000200190806001815401808255809150506001900390600052602060002001600090919091909150908054610b249061219b565b610b2f9291906118ca565b50610c60565b6040518060400160405280600681526020017f62726f6e7a650000000000000000000000000000000000000000000000000000815250600860008473ffffffffffffffffffffffffffffffffffffffff1673ffffffffffffffffffffffffffffffffffffffff1681526020019081526020016000206002019080519060200190610bc09291906117e4565b50600860008373ffffffffffffffffffffffffffffffffffffffff1673ffffffffffffffffffffffffffffffffffffffff1681526020019081526020016000206006016003600081548110610c1857610c17612305565b5b9060005260206000200190806001815401808255809150506001900390600052602060002001600090919091909150908054610c539061219b565b610c5e9291906118ca565b505b5b5b5050565b60606006805480602002602001604051908101604052809291908181526020018280548015610cea57602002820191906000526020600020905b8160009054906101000a900473ffffffffffffffffffffffffffffffffffffffff1673ffffffffffffffffffffffffffffffffffffffff1681526020019060010190808311610ca0575b5050505050905090565b6000806000905060005b600780549050811015610d955760078181548110610d1f57610d1e612305565b5b9060005260206000200160009054906101000a900473ffffffffffffffffffffffffffffffffffffffff1673ffffffffffffffffffffffffffffffffffffffff163373ffffffffffffffffffffffffffffffffffffffff161415610d8257600191505b8080610d8d906121fe565b915050610cfe565b5080610dd6576040517f08c379a0000000000000000000000000000000000000000000000000000000008152600401610dcd90611f75565b60405180910390fd5b6000601484610de59190612247565b905080600860008873ffffffffffffffffffffffffffffffffffffffff1673ffffffffffffffffffffffffffffffffffffffff1681526020019081526020016000206003016000828254610e3991906120c7565b92505081905550600860008773ffffffffffffffffffffffffffffffffffffffff1673ffffffffffffffffffffffffffffffffffffffff16815260200190815260200160002060050185908060018154018082558091505060019003906000526020600020016000909190919091509080519060200190610ebb9291906117e4565b5060016000815480929190610ecf906121fe565b9190505550610edd866115a4565b600860008773ffffffffffffffffffffffffffffffffffffffff1673ffffffffffffffffffffffffffffffffffffffff16815260200190815260200160002060030154925050509392505050565b60058181548110610f3b57600080fd5b90600052602060002090600802016000915090508060000160009054906101000a900473ffffffffffffffffffffffffffffffffffffffff1690806001018054610f849061219b565b80601f0160208091040260200160405190810160405280929190818152602001828054610fb09061219b565b8015610ffd5780601f10610fd257610100808354040283529160200191610ffd565b820191906000526020600020905b815481529060010190602001808311610fe057829003601f168201915b5050505050908060020180546110129061219b565b80601f016020809104026020016040519081016040528092919081815260200182805461103e9061219b565b801561108b5780601f106110605761010080835404028352916020019161108b565b820191906000526020600020905b81548152906001019060200180831161106e57829003601f168201915b5050505050908060030154908060040154905085565b6110a9611957565b600860008373ffffffffffffffffffffffffffffffffffffffff1673ffffffffffffffffffffffffffffffffffffffff168152602001908152602001600020604051806101000160405290816000820160009054906101000a900473ffffffffffffffffffffffffffffffffffffffff1673ffffffffffffffffffffffffffffffffffffffff1673ffffffffffffffffffffffffffffffffffffffff16815260200160018201805461115a9061219b565b80601f01602080910402602001604051908101604052809291908181526020018280546111869061219b565b80156111d35780601f106111a8576101008083540402835291602001916111d3565b820191906000526020600020905b8154815290600101906020018083116111b657829003601f168201915b505050505081526020016002820180546111ec9061219b565b80601f01602080910402602001604051908101604052809291908181526020018280546112189061219b565b80156112655780601f1061123a57610100808354040283529160200191611265565b820191906000526020600020905b81548152906001019060200180831161124857829003601f168201915b50505050508152602001600382015481526020016004820154815260200160058201805480602002602001604051908101604052809291908181526020016000905b828210156113535783829060005260206000200180546112c69061219b565b80601f01602080910402602001604051908101604052809291908181526020018280546112f29061219b565b801561133f5780601f106113145761010080835404028352916020019161133f565b820191906000526020600020905b81548152906001019060200180831161132257829003601f168201915b5050505050815260200190600101906112a7565b50505050815260200160068201805480602002602001604051908101604052809291908181526020016000905b8282101561142c57838290600052602060002001805461139f9061219b565b80601f01602080910402602001604051908101604052809291908181526020018280546113cb9061219b565b80156114185780601f106113ed57610100808354040283529160200191611418565b820191906000526020600020905b8154815290600101906020018083116113fb57829003601f168201915b505050505081526020019060010190611380565b50505050815260200160078201805480602002602001604051908101604052809291908181526020016000905b828210156115055783829060005260206000200180546114789061219b565b80601f01602080910402602001604051908101604052809291908181526020018280546114a49061219b565b80156114f15780601f106114c6576101008083540402835291602001916114f1565b820191906000526020600020905b8154815290600101906020018083116114d457829003601f168201915b505050505081526020019060010190611459565b50505050815250509050919050565b600081141561155a576002829080600181540180825580915050600190039060005260206000200160009091909190915090805190602001906115589291906117e4565b505b60018114156115a05760038290806001815401808255809150506001900390600052602060002001600090919091909150908051906020019061159e9291906117e4565b505b5050565b6064600154141561164e57600860008273ffffffffffffffffffffffffffffffffffffffff1673ffffffffffffffffffffffffffffffffffffffff168152602001908152602001600020600701600260008154811061160657611605612305565b5b90600052602060002001908060018154018082558091505060019003906000526020600020016000909190919091509080546116419061219b565b61164c9291906118ca565b505b60fa60015414156116f857600860008273ffffffffffffffffffffffffffffffffffffffff1673ffffffffffffffffffffffffffffffffffffffff16815260200190815260200160002060070160026001815481106116b0576116af612305565b5b90600052602060002001908060018154018082558091505060019003906000526020600020016000909190919091509080546116eb9061219b565b6116f69291906118ca565b505b6101f460015414156117a257600860008273ffffffffffffffffffffffffffffffffffffffff1673ffffffffffffffffffffffffffffffffffffffff1681526020019081526020016000206007016002808154811061175a57611759612305565b5b90600052602060002001908060018154018082558091505060019003906000526020600020016000909190919091509080546117959061219b565b6117a09291906118ca565b505b50565b600681815481106117b557600080fd5b906000526020600020016000915054906101000a900473ffffffffffffffffffffffffffffffffffffffff1681565b8280546117f09061219b565b90600052602060002090601f0160209004810192826118125760008555611859565b82601f1061182b57805160ff1916838001178555611859565b82800160010185558215611859579182015b8281111561185857825182559160200191906001019061183d565b5b50905061186691906119b2565b5090565b8280548282559060005260206000209081019282156118b9579160200282015b828111156118b85782518290805190602001906118a89291906117e4565b509160200191906001019061188a565b5b5090506118c691906119cf565b5090565b8280546118d69061219b565b90600052602060002090601f0160209004810192826118f85760008555611946565b82601f106119095780548555611946565b8280016001018555821561194657600052602060002091601f016020900482015b8281111561194557825482559160010191906001019061192a565b5b50905061195391906119b2565b5090565b604051806101000160405280600073ffffffffffffffffffffffffffffffffffffffff168152602001606081526020016060815260200160008152602001600081526020016060815260200160608152602001606081525090565b5b808211156119cb5760008160009055506001016119b3565b5090565b5b808211156119ef57600081816119e691906119f3565b506001016119d0565b5090565b5080546119ff9061219b565b6000825580601f10611a115750611a30565b601f016020900490600052602060002090810190611a2f91906119b2565b5b50565b6000611a46611a4184611ff7565b611fd2565b905082815260208101848484011115611a6257611a61612368565b5b611a6d848285612159565b509392505050565b600081359050611a84816123b1565b92915050565b600082601f830112611a9f57611a9e612363565b5b8135611aaf848260208601611a33565b91505092915050565b600081359050611ac7816123c8565b92915050565b600060208284031215611ae357611ae2612372565b5b6000611af184828501611a75565b91505092915050565b600080600060608486031215611b1357611b12612372565b5b6000611b2186828701611a75565b935050602084013567ffffffffffffffff811115611b4257611b4161236d565b5b611b4e86828701611a8a565b9250506040611b5f86828701611ab8565b9150509250925092565b600060208284031215611b7f57611b7e612372565b5b600082013567ffffffffffffffff811115611b9d57611b9c61236d565b5b611ba984828501611a8a565b91505092915050565b60008060408385031215611bc957611bc8612372565b5b600083013567ffffffffffffffff811115611be757611be661236d565b5b611bf385828601611a8a565b9250506020611c0485828601611ab8565b9150509250929050565b600060208284031215611c2457611c23612372565b5b6000611c3284828501611ab8565b91505092915050565b6000611c478383611c67565b60208301905092915050565b6000611c5f8383611d58565b905092915050565b611c708161211d565b82525050565b611c7f8161211d565b82525050565b6000611c9082612048565b611c9a8185612083565b9350611ca583612028565b8060005b83811015611cd6578151611cbd8882611c3b565b9750611cc883612069565b925050600181019050611ca9565b5085935050505092915050565b6000611cee82612053565b611cf88185612094565b935083602082028501611d0a85612038565b8060005b85811015611d465784840389528151611d278582611c53565b9450611d3283612076565b925060208a01995050600181019050611d0e565b50829750879550505050505092915050565b6000611d638261205e565b611d6d81856120a5565b9350611d7d818560208601612168565b611d8681612377565b840191505092915050565b6000611d9c8261205e565b611da681856120b6565b9350611db6818560208601612168565b611dbf81612377565b840191505092915050565b6000611dd76015836120b6565b9150611de282612388565b602082019050919050565b600061010083016000830151611e066000860182611c67565b5060208301518482036020860152611e1e8282611d58565b91505060408301518482036040860152611e388282611d58565b9150506060830151611e4d6060860182611eb9565b506080830151611e606080860182611eb9565b5060a083015184820360a0860152611e788282611ce3565b91505060c083015184820360c0860152611e928282611ce3565b91505060e083015184820360e0860152611eac8282611ce3565b9150508091505092915050565b611ec28161214f565b82525050565b611ed18161214f565b82525050565b6000602082019050611eec6000830184611c76565b92915050565b600060a082019050611f076000830188611c76565b8181036020830152611f198187611d91565b90508181036040830152611f2d8186611d91565b9050611f3c6060830185611ec8565b611f496080830184611ec8565b9695505050505050565b60006020820190508181036000830152611f6d8184611c85565b905092915050565b60006020820190508181036000830152611f8e81611dca565b9050919050565b60006020820190508181036000830152611faf8184611ded565b905092915050565b6000602082019050611fcc6000830184611ec8565b92915050565b6000611fdc611fed565b9050611fe882826121cd565b919050565b6000604051905090565b600067ffffffffffffffff82111561201257612011612334565b5b61201b82612377565b9050602081019050919050565b6000819050602082019050919050565b6000819050602082019050919050565b600081519050919050565b600081519050919050565b600081519050919050565b6000602082019050919050565b6000602082019050919050565b600082825260208201905092915050565b600082825260208201905092915050565b600082825260208201905092915050565b600082825260208201905092915050565b60006120d28261214f565b91506120dd8361214f565b9250827fffffffffffffffffffffffffffffffffffffffffffffffffffffffffffffffff0382111561211257612111612278565b5b828201905092915050565b60006121288261212f565b9050919050565b600073ffffffffffffffffffffffffffffffffffffffff82169050919050565b6000819050919050565b82818337600083830152505050565b60005b8381101561218657808201518184015260208101905061216b565b83811115612195576000848401525b50505050565b600060028204905060018216806121b357607f821691505b602082108114156121c7576121c66122d6565b5b50919050565b6121d682612377565b810181811067ffffffffffffffff821117156121f5576121f4612334565b5b80604052505050565b60006122098261214f565b91507fffffffffffffffffffffffffffffffffffffffffffffffffffffffffffffffff82141561223c5761223b612278565b5b600182019050919050565b60006122528261214f565b915061225d8361214f565b92508261226d5761226c6122a7565b5b828206905092915050565b7f4e487b7100000000000000000000000000000000000000000000000000000000600052601160045260246000fd5b7f4e487b7100000000000000000000000000000000000000000000000000000000600052601260045260246000fd5b7f4e487b7100000000000000000000000000000000000000000000000000000000600052602260045260246000fd5b7f4e487b7100000000000000000000000000000000000000000000000000000000600052603260045260246000fd5b7f4e487b7100000000000000000000000000000000000000000000000000000000600052604160045260246000fd5b600080fd5b600080fd5b600080fd5b600080fd5b6000601f19601f8301169050919050565b7f596f7520617265206e6f7420746865206f776e65720000000000000000000000600082015250565b6123ba8161211d565b81146123c557600080fd5b50565b6123d18161214f565b81146123dc57600080fd5b5056fea2646970667358221220a1a8d05c4891616826b659662f6773f10ccc640a1ae801a47b0c984ae3020daa64736f6c63430008070033",
  "linkReferences": {},
  "deployedLinkReferences": {}
}