{
  "_format": "hh-sol-artifact-1",
  "contractName": "Loyalty",
  "sourceName": "contracts/Loyalty.sol",
  "abi": [
    {
      "inputs": [
        {
          "internalType": "string",
          "name": "_funkyName",
          "type": "string"
        }
      ],
      "name": "addCustomer",
      "outputs": [],
      "stateMutability": "nonpayable",
      "type": "function"
    },
    {
      "inputs": [
        {
          "internalType": "uint256",
          "name": "",
          "type": "uint256"
        }
      ],
      "name": "allCustomers",
      "outputs": [
        {
          "internalType": "address",
          "name": "",
          "type": "address"
        }
      ],
      "stateMutability": "view",
      "type": "function"
    },
    {
      "inputs": [
        {
          "internalType": "uint256",
          "name": "",
          "type": "uint256"
        }
      ],
      "name": "customers",
      "outputs": [
        {
          "internalType": "address",
          "name": "customer_address",
          "type": "address"
        },
        {
          "internalType": "string",
          "name": "funkyName",
          "type": "string"
        },
        {
          "internalType": "string",
          "name": "tier",
          "type": "string"
        },
        {
          "internalType": "uint256",
          "name": "overAllPoints",
          "type": "uint256"
        },
        {
          "internalType": "uint256",
          "name": "coffeeBeans",
          "type": "uint256"
        }
      ],
      "stateMutability": "view",
      "type": "function"
    },
    {
      "inputs": [
        {
          "internalType": "address",
          "name": "_customer",
          "type": "address"
        },
        {
          "internalType": "string",
          "name": "items",
          "type": "string"
        },
        {
          "internalType": "uint256",
          "name": "_bill",
          "type": "uint256"
        }
      ],
      "name": "earnPoints",
      "outputs": [
        {
          "internalType": "uint256",
          "name": "",
          "type": "uint256"
        }
      ],
      "stateMutability": "nonpayable",
      "type": "function"
    },
    {
      "inputs": [],
      "name": "getAllCustomers",
      "outputs": [
        {
          "internalType": "address[]",
          "name": "",
          "type": "address[]"
        }
      ],
      "stateMutability": "view",
      "type": "function"
    },
    {
      "inputs": [
        {
          "internalType": "address",
          "name": "_address",
          "type": "address"
        }
      ],
      "name": "getCustomer",
      "outputs": [
        {
          "components": [
            {
              "internalType": "address",
              "name": "customer_address",
              "type": "address"
            },
            {
              "internalType": "string",
              "name": "funkyName",
              "type": "string"
            },
            {
              "internalType": "string",
              "name": "tier",
              "type": "string"
            },
            {
              "internalType": "uint256",
              "name": "overAllPoints",
              "type": "uint256"
            },
            {
              "internalType": "uint256",
              "name": "coffeeBeans",
              "type": "uint256"
            },
            {
              "internalType": "string[]",
              "name": "orders",
              "type": "string[]"
            },
            {
              "internalType": "string[]",
              "name": "badges",
              "type": "string[]"
            },
            {
              "internalType": "string[]",
              "name": "NFTs",
              "type": "string[]"
            }
          ],
          "internalType": "struct Loyalty.Customer",
          "name": "",
          "type": "tuple"
        }
      ],
      "stateMutability": "view",
      "type": "function"
    },
    {
      "inputs": [
        {
          "internalType": "address",
          "name": "_address",
          "type": "address"
        }
      ],
      "name": "giveTier",
      "outputs": [],
      "stateMutability": "nonpayable",
      "type": "function"
    },
    {
      "inputs": [
        {
          "internalType": "address",
          "name": "_address",
          "type": "address"
        }
      ],
      "name": "gubblieOrder",
      "outputs": [],
      "stateMutability": "nonpayable",
      "type": "function"
    },
    {
      "inputs": [],
      "name": "isOwner",
      "outputs": [
        {
          "internalType": "bool",
          "name": "",
          "type": "bool"
        }
      ],
      "stateMutability": "view",
      "type": "function"
    },
    {
      "inputs": [],
      "name": "owner",
      "outputs": [
        {
          "internalType": "address",
          "name": "",
          "type": "address"
        }
      ],
      "stateMutability": "view",
      "type": "function"
    },
    {
      "inputs": [
        {
          "internalType": "address",
          "name": "_address",
          "type": "address"
        },
        {
          "internalType": "string",
          "name": "_hash",
          "type": "string"
        }
      ],
      "name": "sendNft",
      "outputs": [],
      "stateMutability": "nonpayable",
      "type": "function"
    }
  ],
  "bytecode": "0x6080604052600060015561138860045573607d1cb32b9030b1968a377bec2c17ebaaf412e6600760006101000a81548173ffffffffffffffffffffffffffffffffffffffff021916908373ffffffffffffffffffffffffffffffffffffffff16021790555034801561007057600080fd5b50612409806100806000396000f3fe608060405234801561001057600080fd5b50600436106100a95760003560e01c80638f32d59b116100715780638f32d59b1461013e578063b6ee54d61461015c578063c0abda2a1461018c578063cb949e51146101c0578063da6d35e4146101f0578063eb6fbd201461020c576100a9565b806303dd3d81146100ae57806335287a45146100ca57806369825b2f146100e65780637da67ba8146101025780638da5cb5b14610120575b600080fd5b6100c860048036038101906100c39190611bef565b61023c565b005b6100e460048036038101906100df9190611af7565b610720565b005b61010060048036038101906100fb9190611b24565b610c3e565b005b61010a610d18565b6040516101179190611f69565b60405180910390f35b610128610da6565b6040516101359190611eed565b60405180910390f35b610146610dcc565b6040516101539190611f8b565b60405180910390f35b61017660048036038101906101719190611b80565b610e35565b6040516101839190611fc8565b60405180910390f35b6101a660048036038101906101a19190611c38565b610fe5565b6040516101b7959493929190611f08565b60405180910390f35b6101da60048036038101906101d59190611af7565b61115b565b6040516101e79190611fa6565b60405180910390f35b61020a60048036038101906102059190611af7565b6115ce565b005b61022660048036038101906102219190611c38565b6117cf565b6040516102339190611eed565b60405180910390f35b6006339080600181540180825580915050600190039060005260206000200160009091909190916101000a81548173ffffffffffffffffffffffffffffffffffffffff021916908373ffffffffffffffffffffffffffffffffffffffff16021790555033600860003373ffffffffffffffffffffffffffffffffffffffff1673ffffffffffffffffffffffffffffffffffffffff16815260200190815260200160002060000160006101000a81548173ffffffffffffffffffffffffffffffffffffffff021916908373ffffffffffffffffffffffffffffffffffffffff16021790555080600860003373ffffffffffffffffffffffffffffffffffffffff1673ffffffffffffffffffffffffffffffffffffffff168152602001908152602001600020600101908051906020019061037692919061180e565b506000600860003373ffffffffffffffffffffffffffffffffffffffff1673ffffffffffffffffffffffffffffffffffffffff168152602001908152602001600020600301819055506040518060400160405280600681526020017f62726f6e7a650000000000000000000000000000000000000000000000000000815250600860003373ffffffffffffffffffffffffffffffffffffffff1673ffffffffffffffffffffffffffffffffffffffff168152602001908152602001600020600201908051906020019061044a92919061180e565b506000600860003373ffffffffffffffffffffffffffffffffffffffff1673ffffffffffffffffffffffffffffffffffffffff1681526020019081526020016000206004018190555060056040518061010001604052803373ffffffffffffffffffffffffffffffffffffffff1681526020018381526020016040518060400160405280600681526020017f62726f6e7a65000000000000000000000000000000000000000000000000000081525081526020016000815260200160008152602001600067ffffffffffffffff81111561052757610526612351565b5b60405190808252806020026020018201604052801561055a57816020015b60608152602001906001900390816105455790505b508152602001600067ffffffffffffffff81111561057b5761057a612351565b5b6040519080825280602002602001820160405280156105ae57816020015b60608152602001906001900390816105995790505b508152602001600067ffffffffffffffff8111156105cf576105ce612351565b5b60405190808252806020026020018201604052801561060257816020015b60608152602001906001900390816105ed5790505b50815250908060018154018082558091505060019003906000526020600020906008020160009091909190915060008201518160000160006101000a81548173ffffffffffffffffffffffffffffffffffffffff021916908373ffffffffffffffffffffffffffffffffffffffff160217905550602082015181600101908051906020019061069292919061180e565b5060408201518160020190805190602001906106af92919061180e565b50606082015181600301556080820151816004015560a08201518160050190805190602001906106e0929190611894565b5060c08201518160060190805190602001906106fd929190611894565b5060e082015181600701908051906020019061071a929190611894565b50505050565b6000600860008373ffffffffffffffffffffffffffffffffffffffff1673ffffffffffffffffffffffffffffffffffffffff1681526020019081526020016000206003015490506103e8811061089e576040518060400160405280600881526020017f506c6174696e756d000000000000000000000000000000000000000000000000815250600860008473ffffffffffffffffffffffffffffffffffffffff1673ffffffffffffffffffffffffffffffffffffffff16815260200190815260200160002060020190805190602001906107fb92919061180e565b50600860008373ffffffffffffffffffffffffffffffffffffffff1673ffffffffffffffffffffffffffffffffffffffff1681526020019081526020016000206006016003808154811061085257610851612322565b5b906000526020600020019080600181540180825580915050600190039060005260206000200160009091909190915090805461088d906121e9565b6108989291906118f4565b50610c3a565b61025881106109d6576040518060400160405280600681526020017f476f6c64656e0000000000000000000000000000000000000000000000000000815250600860008473ffffffffffffffffffffffffffffffffffffffff1673ffffffffffffffffffffffffffffffffffffffff168152602001908152602001600020600201908051906020019061093292919061180e565b50600860008373ffffffffffffffffffffffffffffffffffffffff1673ffffffffffffffffffffffffffffffffffffffff168152602001908152602001600020600601600360028154811061098a57610989612322565b5b90600052602060002001908060018154018082558091505060019003906000526020600020016000909190919091509080546109c5906121e9565b6109d09291906118f4565b50610c39565b60fa8110610b0d576040518060400160405280600681526020017f53696c7665720000000000000000000000000000000000000000000000000000815250600860008473ffffffffffffffffffffffffffffffffffffffff1673ffffffffffffffffffffffffffffffffffffffff1681526020019081526020016000206002019080519060200190610a6992919061180e565b50600860008373ffffffffffffffffffffffffffffffffffffffff1673ffffffffffffffffffffffffffffffffffffffff1681526020019081526020016000206006016003600181548110610ac157610ac0612322565b5b9060005260206000200190806001815401808255809150506001900390600052602060002001600090919091909150908054610afc906121e9565b610b079291906118f4565b50610c38565b6040518060400160405280600681526020017f62726f6e7a650000000000000000000000000000000000000000000000000000815250600860008473ffffffffffffffffffffffffffffffffffffffff1673ffffffffffffffffffffffffffffffffffffffff1681526020019081526020016000206002019080519060200190610b9892919061180e565b50600860008373ffffffffffffffffffffffffffffffffffffffff1673ffffffffffffffffffffffffffffffffffffffff1681526020019081526020016000206006016003600081548110610bf057610bef612322565b5b9060005260206000200190806001815401808255809150506001900390600052602060002001600090919091909150908054610c2b906121e9565b610c369291906118f4565b505b5b5b5050565b600760009054906101000a900473ffffffffffffffffffffffffffffffffffffffff1673ffffffffffffffffffffffffffffffffffffffff163373ffffffffffffffffffffffffffffffffffffffff1614610c9857600080fd5b600860008373ffffffffffffffffffffffffffffffffffffffff1673ffffffffffffffffffffffffffffffffffffffff16815260200190815260200160002060070181908060018154018082558091505060019003906000526020600020016000909190919091509080519060200190610d1392919061180e565b505050565b60606006805480602002602001604051908101604052809291908181526020018280548015610d9c57602002820191906000526020600020905b8160009054906101000a900473ffffffffffffffffffffffffffffffffffffffff1673ffffffffffffffffffffffffffffffffffffffff1681526020019060010190808311610d52575b5050505050905090565b600760009054906101000a900473ffffffffffffffffffffffffffffffffffffffff1681565b6000600760009054906101000a900473ffffffffffffffffffffffffffffffffffffffff1673ffffffffffffffffffffffffffffffffffffffff163373ffffffffffffffffffffffffffffffffffffffff161415610e2d5760019050610e32565b600090505b90565b6000600760009054906101000a900473ffffffffffffffffffffffffffffffffffffffff1673ffffffffffffffffffffffffffffffffffffffff163373ffffffffffffffffffffffffffffffffffffffff1614610e9157600080fd5b6000601483610ea0919061212e565b905080600860008773ffffffffffffffffffffffffffffffffffffffff1673ffffffffffffffffffffffffffffffffffffffff1681526020019081526020016000206003016000828254610ef491906120d8565b92505081905550600860008673ffffffffffffffffffffffffffffffffffffffff1673ffffffffffffffffffffffffffffffffffffffff16815260200190815260200160002060050184908060018154018082558091505060019003906000526020600020016000909190919091509080519060200190610f7692919061180e565b5060016000815480929190610f8a9061224c565b9190505550610f98856115ce565b600860008673ffffffffffffffffffffffffffffffffffffffff1673ffffffffffffffffffffffffffffffffffffffff168152602001908152602001600020600301549150509392505050565b60058181548110610ff557600080fd5b90600052602060002090600802016000915090508060000160009054906101000a900473ffffffffffffffffffffffffffffffffffffffff169080600101805461103e906121e9565b80601f016020809104026020016040519081016040528092919081815260200182805461106a906121e9565b80156110b75780601f1061108c576101008083540402835291602001916110b7565b820191906000526020600020905b81548152906001019060200180831161109a57829003601f168201915b5050505050908060020180546110cc906121e9565b80601f01602080910402602001604051908101604052809291908181526020018280546110f8906121e9565b80156111455780601f1061111a57610100808354040283529160200191611145565b820191906000526020600020905b81548152906001019060200180831161112857829003601f168201915b5050505050908060030154908060040154905085565b611163611981565b600860008373ffffffffffffffffffffffffffffffffffffffff1673ffffffffffffffffffffffffffffffffffffffff168152602001908152602001600020604051806101000160405290816000820160009054906101000a900473ffffffffffffffffffffffffffffffffffffffff1673ffffffffffffffffffffffffffffffffffffffff1673ffffffffffffffffffffffffffffffffffffffff168152602001600182018054611214906121e9565b80601f0160208091040260200160405190810160405280929190818152602001828054611240906121e9565b801561128d5780601f106112625761010080835404028352916020019161128d565b820191906000526020600020905b81548152906001019060200180831161127057829003601f168201915b505050505081526020016002820180546112a6906121e9565b80601f01602080910402602001604051908101604052809291908181526020018280546112d2906121e9565b801561131f5780601f106112f45761010080835404028352916020019161131f565b820191906000526020600020905b81548152906001019060200180831161130257829003601f168201915b50505050508152602001600382015481526020016004820154815260200160058201805480602002602001604051908101604052809291908181526020016000905b8282101561140d578382906000526020600020018054611380906121e9565b80601f01602080910402602001604051908101604052809291908181526020018280546113ac906121e9565b80156113f95780601f106113ce576101008083540402835291602001916113f9565b820191906000526020600020905b8154815290600101906020018083116113dc57829003601f168201915b505050505081526020019060010190611361565b50505050815260200160068201805480602002602001604051908101604052809291908181526020016000905b828210156114e6578382906000526020600020018054611459906121e9565b80601f0160208091040260200160405190810160405280929190818152602001828054611485906121e9565b80156114d25780601f106114a7576101008083540402835291602001916114d2565b820191906000526020600020905b8154815290600101906020018083116114b557829003601f168201915b50505050508152602001906001019061143a565b50505050815260200160078201805480602002602001604051908101604052809291908181526020016000905b828210156115bf578382906000526020600020018054611532906121e9565b80601f016020809104026020016040519081016040528092919081815260200182805461155e906121e9565b80156115ab5780601f10611580576101008083540402835291602001916115ab565b820191906000526020600020905b81548152906001019060200180831161158e57829003601f168201915b505050505081526020019060010190611513565b50505050815250509050919050565b6064600154141561167857600860008273ffffffffffffffffffffffffffffffffffffffff1673ffffffffffffffffffffffffffffffffffffffff16815260200190815260200160002060070160026000815481106116305761162f612322565b5b906000526020600020019080600181540180825580915050600190039060005260206000200160009091909190915090805461166b906121e9565b6116769291906118f4565b505b60fa600154141561172257600860008273ffffffffffffffffffffffffffffffffffffffff1673ffffffffffffffffffffffffffffffffffffffff16815260200190815260200160002060070160026001815481106116da576116d9612322565b5b9060005260206000200190806001815401808255809150506001900390600052602060002001600090919091909150908054611715906121e9565b6117209291906118f4565b505b6101f460015414156117cc57600860008273ffffffffffffffffffffffffffffffffffffffff1673ffffffffffffffffffffffffffffffffffffffff1681526020019081526020016000206007016002808154811061178457611783612322565b5b90600052602060002001908060018154018082558091505060019003906000526020600020016000909190919091509080546117bf906121e9565b6117ca9291906118f4565b505b50565b600681815481106117df57600080fd5b906000526020600020016000915054906101000a900473ffffffffffffffffffffffffffffffffffffffff1681565b82805461181a906121e9565b90600052602060002090601f01602090048101928261183c5760008555611883565b82601f1061185557805160ff1916838001178555611883565b82800160010185558215611883579182015b82811115611882578251825591602001919060010190611867565b5b50905061189091906119dc565b5090565b8280548282559060005260206000209081019282156118e3579160200282015b828111156118e25782518290805190602001906118d292919061180e565b50916020019190600101906118b4565b5b5090506118f091906119f9565b5090565b828054611900906121e9565b90600052602060002090601f0160209004810192826119225760008555611970565b82601f106119335780548555611970565b8280016001018555821561197057600052602060002091601f016020900482015b8281111561196f578254825591600101919060010190611954565b5b50905061197d91906119dc565b5090565b604051806101000160405280600073ffffffffffffffffffffffffffffffffffffffff168152602001606081526020016060815260200160008152602001600081526020016060815260200160608152602001606081525090565b5b808211156119f55760008160009055506001016119dd565b5090565b5b80821115611a195760008181611a109190611a1d565b506001016119fa565b5090565b508054611a29906121e9565b6000825580601f10611a3b5750611a5a565b601f016020900490600052602060002090810190611a5991906119dc565b5b50565b6000611a70611a6b84612008565b611fe3565b905082815260208101848484011115611a8c57611a8b612385565b5b611a978482856121a7565b509392505050565b600081359050611aae816123a5565b92915050565b600082601f830112611ac957611ac8612380565b5b8135611ad9848260208601611a5d565b91505092915050565b600081359050611af1816123bc565b92915050565b600060208284031215611b0d57611b0c61238f565b5b6000611b1b84828501611a9f565b91505092915050565b60008060408385031215611b3b57611b3a61238f565b5b6000611b4985828601611a9f565b925050602083013567ffffffffffffffff811115611b6a57611b6961238a565b5b611b7685828601611ab4565b9150509250929050565b600080600060608486031215611b9957611b9861238f565b5b6000611ba786828701611a9f565b935050602084013567ffffffffffffffff811115611bc857611bc761238a565b5b611bd486828701611ab4565b9250506040611be586828701611ae2565b9150509250925092565b600060208284031215611c0557611c0461238f565b5b600082013567ffffffffffffffff811115611c2357611c2261238a565b5b611c2f84828501611ab4565b91505092915050565b600060208284031215611c4e57611c4d61238f565b5b6000611c5c84828501611ae2565b91505092915050565b6000611c718383611c91565b60208301905092915050565b6000611c898383611d91565b905092915050565b611c9a8161215f565b82525050565b611ca98161215f565b82525050565b6000611cba82612059565b611cc48185612094565b9350611ccf83612039565b8060005b83811015611d00578151611ce78882611c65565b9750611cf28361207a565b925050600181019050611cd3565b5085935050505092915050565b6000611d1882612064565b611d2281856120a5565b935083602082028501611d3485612049565b8060005b85811015611d705784840389528151611d518582611c7d565b9450611d5c83612087565b925060208a01995050600181019050611d38565b50829750879550505050505092915050565b611d8b81612171565b82525050565b6000611d9c8261206f565b611da681856120b6565b9350611db68185602086016121b6565b611dbf81612394565b840191505092915050565b6000611dd58261206f565b611ddf81856120c7565b9350611def8185602086016121b6565b611df881612394565b840191505092915050565b600061010083016000830151611e1c6000860182611c91565b5060208301518482036020860152611e348282611d91565b91505060408301518482036040860152611e4e8282611d91565b9150506060830151611e636060860182611ecf565b506080830151611e766080860182611ecf565b5060a083015184820360a0860152611e8e8282611d0d565b91505060c083015184820360c0860152611ea88282611d0d565b91505060e083015184820360e0860152611ec28282611d0d565b9150508091505092915050565b611ed88161219d565b82525050565b611ee78161219d565b82525050565b6000602082019050611f026000830184611ca0565b92915050565b600060a082019050611f1d6000830188611ca0565b8181036020830152611f2f8187611dca565b90508181036040830152611f438186611dca565b9050611f526060830185611ede565b611f5f6080830184611ede565b9695505050505050565b60006020820190508181036000830152611f838184611caf565b905092915050565b6000602082019050611fa06000830184611d82565b92915050565b60006020820190508181036000830152611fc08184611e03565b905092915050565b6000602082019050611fdd6000830184611ede565b92915050565b6000611fed611ffe565b9050611ff9828261221b565b919050565b6000604051905090565b600067ffffffffffffffff82111561202357612022612351565b5b61202c82612394565b9050602081019050919050565b6000819050602082019050919050565b6000819050602082019050919050565b600081519050919050565b600081519050919050565b600081519050919050565b6000602082019050919050565b6000602082019050919050565b600082825260208201905092915050565b600082825260208201905092915050565b600082825260208201905092915050565b600082825260208201905092915050565b60006120e38261219d565b91506120ee8361219d565b9250827fffffffffffffffffffffffffffffffffffffffffffffffffffffffffffffffff0382111561212357612122612295565b5b828201905092915050565b60006121398261219d565b91506121448361219d565b925082612154576121536122c4565b5b828204905092915050565b600061216a8261217d565b9050919050565b60008115159050919050565b600073ffffffffffffffffffffffffffffffffffffffff82169050919050565b6000819050919050565b82818337600083830152505050565b60005b838110156121d45780820151818401526020810190506121b9565b838111156121e3576000848401525b50505050565b6000600282049050600182168061220157607f821691505b60208210811415612215576122146122f3565b5b50919050565b61222482612394565b810181811067ffffffffffffffff8211171561224357612242612351565b5b80604052505050565b60006122578261219d565b91507fffffffffffffffffffffffffffffffffffffffffffffffffffffffffffffffff82141561228a57612289612295565b5b600182019050919050565b7f4e487b7100000000000000000000000000000000000000000000000000000000600052601160045260246000fd5b7f4e487b7100000000000000000000000000000000000000000000000000000000600052601260045260246000fd5b7f4e487b7100000000000000000000000000000000000000000000000000000000600052602260045260246000fd5b7f4e487b7100000000000000000000000000000000000000000000000000000000600052603260045260246000fd5b7f4e487b7100000000000000000000000000000000000000000000000000000000600052604160045260246000fd5b600080fd5b600080fd5b600080fd5b600080fd5b6000601f19601f8301169050919050565b6123ae8161215f565b81146123b957600080fd5b50565b6123c58161219d565b81146123d057600080fd5b5056fea264697066735822122046c14580f74c58ce7e41084cccf7820db3d0de26cfc0a423e631812c4bd8861c64736f6c63430008070033",
  "linkReferences": {},
  "deployedLinkReferences": {}
}